{
  "contractName": "Lottery",
  "abi": [
    {
      "inputs": [],
      "stateMutability": "nonpayable",
      "type": "constructor"
    },
    {
      "inputs": [],
      "name": "manager",
      "outputs": [
        {
          "internalType": "address",
          "name": "",
          "type": "address"
        }
      ],
      "stateMutability": "view",
      "type": "function"
    },
    {
      "inputs": [
        {
          "internalType": "uint256",
          "name": "",
          "type": "uint256"
        }
      ],
      "name": "players",
      "outputs": [
        {
          "internalType": "address",
          "name": "",
          "type": "address"
        }
      ],
      "stateMutability": "view",
      "type": "function"
    },
    {
      "inputs": [],
      "name": "enter",
      "outputs": [],
      "stateMutability": "payable",
      "type": "function"
    },
    {
      "inputs": [],
      "name": "random",
      "outputs": [
        {
          "internalType": "uint256",
          "name": "",
          "type": "uint256"
        }
      ],
      "stateMutability": "view",
      "type": "function"
    },
    {
      "inputs": [],
      "name": "pickWinner",
      "outputs": [],
      "stateMutability": "nonpayable",
      "type": "function"
    },
    {
      "inputs": [],
      "name": "getPlayers",
      "outputs": [
        {
          "internalType": "address[]",
          "name": "",
          "type": "address[]"
        }
      ],
      "stateMutability": "view",
      "type": "function"
    }
  ],
  "bytecode": "0x608060405234801561001057600080fd5b5033600160006101000a81548173ffffffffffffffffffffffffffffffffffffffff021916908373ffffffffffffffffffffffffffffffffffffffff160217905550610aba806100616000396000f3fe6080604052600436106100555760003560e01c8063481c6a751461005a5780635d495aea146100855780635ec01e4d1461009c5780638b5b9ccc146100c7578063e97dcb62146100f2578063f71d96cb146100fc575b600080fd5b34801561006657600080fd5b5061006f610139565b60405161007c919061058c565b60405180910390f35b34801561009157600080fd5b5061009a61015f565b005b3480156100a857600080fd5b506100b16102f2565b6040516100be91906105c0565b60405180910390f35b3480156100d357600080fd5b506100dc610328565b6040516100e99190610699565b60405180910390f35b6100fa6103b6565b005b34801561010857600080fd5b50610123600480360381019061011e91906106ec565b610465565b604051610130919061058c565b60405180910390f35b600160009054906101000a900473ffffffffffffffffffffffffffffffffffffffff1681565b600160009054906101000a900473ffffffffffffffffffffffffffffffffffffffff1673ffffffffffffffffffffffffffffffffffffffff163373ffffffffffffffffffffffffffffffffffffffff16146101ef576040517f08c379a00000000000000000000000000000000000000000000000000000000081526004016101e69061079c565b60405180910390fd5b600080805490506101fe6102f2565b61020891906107eb565b90506000818154811061021e5761021d61081c565b5b9060005260206000200160009054906101000a900473ffffffffffffffffffffffffffffffffffffffff1673ffffffffffffffffffffffffffffffffffffffff166108fc479081150290604051600060405180830381858888f1935050505015801561028e573d6000803e3d6000fd5b50600067ffffffffffffffff8111156102aa576102a961084b565b5b6040519080825280602002602001820160405280156102d85781602001602082028036833780820191505090505b50600090805190602001906102ee9291906104a4565b5050565b60004442600060405160200161030a939291906109b9565b6040516020818303038152906040528051906020012060001c905090565b606060008054806020026020016040519081016040528092919081815260200182805480156103ac57602002820191906000526020600020905b8160009054906101000a900473ffffffffffffffffffffffffffffffffffffffff1673ffffffffffffffffffffffffffffffffffffffff1681526020019060010190808311610362575b5050505050905090565b671bc16d674ec800003411610400576040517f08c379a00000000000000000000000000000000000000000000000000000000081526004016103f790610a64565b60405180910390fd5b6000339080600181540180825580915050600190039060005260206000200160009091909190916101000a81548173ffffffffffffffffffffffffffffffffffffffff021916908373ffffffffffffffffffffffffffffffffffffffff160217905550565b6000818154811061047557600080fd5b906000526020600020016000915054906101000a900473ffffffffffffffffffffffffffffffffffffffff1681565b82805482825590600052602060002090810192821561051d579160200282015b8281111561051c5782518260006101000a81548173ffffffffffffffffffffffffffffffffffffffff021916908373ffffffffffffffffffffffffffffffffffffffff160217905550916020019190600101906104c4565b5b50905061052a919061052e565b5090565b5b8082111561054757600081600090555060010161052f565b5090565b600073ffffffffffffffffffffffffffffffffffffffff82169050919050565b60006105768261054b565b9050919050565b6105868161056b565b82525050565b60006020820190506105a1600083018461057d565b92915050565b6000819050919050565b6105ba816105a7565b82525050565b60006020820190506105d560008301846105b1565b92915050565b600081519050919050565b600082825260208201905092915050565b6000819050602082019050919050565b6106108161056b565b82525050565b60006106228383610607565b60208301905092915050565b6000602082019050919050565b6000610646826105db565b61065081856105e6565b935061065b836105f7565b8060005b8381101561068c5781516106738882610616565b975061067e8361062e565b92505060018101905061065f565b5085935050505092915050565b600060208201905081810360008301526106b3818461063b565b905092915050565b600080fd5b6106c9816105a7565b81146106d457600080fd5b50565b6000813590506106e6816106c0565b92915050565b600060208284031215610702576107016106bb565b5b6000610710848285016106d7565b91505092915050565b600082825260208201905092915050565b7f596f7520617265206e6f74206175746872697a656420746f207069636b20612060008201527f77696e6e65720000000000000000000000000000000000000000000000000000602082015250565b6000610786602683610719565b91506107918261072a565b604082019050919050565b600060208201905081810360008301526107b581610779565b9050919050565b7f4e487b7100000000000000000000000000000000000000000000000000000000600052601260045260246000fd5b60006107f6826105a7565b9150610801836105a7565b925082610811576108106107bc565b5b828206905092915050565b7f4e487b7100000000000000000000000000000000000000000000000000000000600052603260045260246000fd5b7f4e487b7100000000000000000000000000000000000000000000000000000000600052604160045260246000fd5b6000819050919050565b610895610890826105a7565b61087a565b82525050565b600081549050919050565b600081905092915050565b60008190508160005260206000209050919050565b6108cf8161056b565b82525050565b60006108e183836108c6565b60208301905092915050565b60008160001c9050919050565b600073ffffffffffffffffffffffffffffffffffffffff82169050919050565b600061092d610928836108ed565b6108fa565b9050919050565b6000610940825461091a565b9050919050565b6000600182019050919050565b600061095f8261089b565b61096981856108a6565b9350610974836108b1565b8060005b838110156109ac5761098982610934565b61099388826108d5565b975061099e83610947565b925050600181019050610978565b5085935050505092915050565b60006109c58286610884565b6020820191506109d58285610884565b6020820191506109e58284610954565b9150819050949350505050565b7f416d6f756e74206d7573742062652067726561746572207468616e203220457460008201527f6865720000000000000000000000000000000000000000000000000000000000602082015250565b6000610a4e602383610719565b9150610a59826109f2565b604082019050919050565b60006020820190508181036000830152610a7d81610a41565b905091905056fea26469706673582212208bbbb219cd3f087c5004a462777fd6f5505bd54ef6b90d2e3bc54e1dfe8b719764736f6c634300080b0033",
  "immutableReferences": {},
  "source": "// SPDX-License-Identifier: GPL-3.0\r\npragma solidity ^0.8.0;\r\n\r\ncontract Lottery{\r\n    address[] public players;\r\n    address public manager;\r\n\r\n    constructor(){\r\n        manager = msg.sender;\r\n    }\r\n\r\n    function enter() public payable{\r\n        require(msg.value > 2 ether, \"Amount must be greater than 2 Ether\");\r\n        players.push(msg.sender);\r\n    }\r\n\r\n    function random() public view returns(uint){\r\n        return uint(keccak256(abi.encodePacked(block.difficulty, block.timestamp, players)));\r\n    }\r\n\r\n    function pickWinner() public restrited{\r\n       \r\n        //return random() % players.length;\r\n\r\n        uint index = random() % players.length;\r\n        payable(players[index]).transfer(address(this).balance);\r\n        players = new address[](0);\r\n    }\r\n\r\n    modifier restrited(){\r\n        require(msg.sender == manager, \"You are not authrized to pick a winner\");\r\n        _;\r\n    }\r\n\r\n    function getPlayers() public view returns(address[] memory){\r\n        return players;\r\n    }\r\n}",
  "sourcePath": "C:\\Users\\ACER\\Desktop\\blockChain\\contracts\\Lottery.sol",
  "compiler": {
    "name": "solc",
    "version": "0.8.11+commit.d7f03943.Emscripten.clang"
  },
  "schemaVersion": "3.4.4",
  "updatedAt": "2022-06-08T17:07:13.981Z",
  "devdoc": {
    "kind": "dev",
    "methods": {},
    "version": 1
  },
  "userdoc": {
    "kind": "user",
    "methods": {},
    "version": 1
  }
}